:100000006F002041000000004A0100004C01000088
:1000100000000000000000000000000000000000E0
:1000200000000000000000000000000000000000D0
:100030001004000000000000100400000000000098
:100040001004000010040000100400001004000060
:100050001004000010040000100400001004000050
:100060001004000010040000100400001004000040
:100070001004000010040000100400001004000030
:100080001004000010040000100400001004000020
:100090001004000010040000100400000000000024
:1000A000511126C022C206C4828282441244A24058
:1000B000310182802A86014593F6150091C232955E
:1000C00085810606F5F9828000000000634E050276
:1000D00063C305042E86AA857D5515C285466378BF
:1000E000B6006356C00006068606E36CB6FE014500
:1000F00063E4C500918D558D85820582F5FA828075
:100100008682C93F2E8582823305A04063D70500D1
:10011000B305B040C1B7B305B0408682653F330533
:10012000A0408282868263C70500634905005D376F
:100130002E858282B305B040E35B05FE3305A04007
:10014000513F3305B0408282000001A0B707EFBEE7
:1001500037E700E0938707083CC701A0EFF25FF4A0
:100160007111E945853F2A8701443AC08947B71490
:1001700001409CC8294581218947DCC8294525299A
:1001800002470504E31387FE110105B7EFF25FF1A3
:10019000511185454145E92689477C80C1473EC4C8
:1001A0008A858D47371501403EC223110100012E7B
:1001B000B71701400947D8CB3101C5BDEFF25FEE5B
:1001C0005111854513054003612E930780043EC4F9
:1001D0008D47231101003EC201449304C06293176E
:1001E0001400A6979E23131724008A857C80B707E6
:1001F000002093870700BA9788430504C924AD47B8
:10020000E31FF4FC310155B5EFF29FE9611193074B
:10021000C06201443EC29247370700209314240075
:100220009316140013070700BE9626978E220843E4
:10023000292625E593074064A6979C430965130585
:1002400085323EC0213FB717014009470565D8CB2D
:10025000130545198D26FD441305002301378247F8
:10026000B3D79700858BA1C3B71701400947D8CBF7
:100270001305A0698926FD14FD57E39FF4FC1305BF
:100280000023E93DB717014009472965130505C457
:10029000D8CB15261305C012A12E0504AD47E31CCB
:1002A000F4F6210119B5B71701400947D8CB13055A
:1002B0000023C9B7EFF2DFDE05456924F520C1242C
:1002C000F135ED3D9137FDBFEFF29FDD3714024070
:1002D0001C403707FFF8414593E717001CC05C40FE
:1002E000F98F5CC01C403707F7FE7D17F98F1CC0E3
:1002F0001C403707FCFF7D17F98F1CC05C4041771D
:100300007D17F98F5CC0B7079F001CC489241C4C63
:1003100093E707021CCCB717014003A70740938659
:1003200007401377F7F023A0E74003A707401367C0
:10033000070823A0E74089479CCAB7F7FF1F03C5FA
:10034000477D9307F00F6304F5007D890924B727E3
:1003500002409843C176FD16719B98C3984313677A
:10036000170098C3B7170240D843D8C3D843758F36
:10037000D8C3D843B7060001D8C39843558F98C354
:10038000984393166700E3DD06FED843B716024094
:10039000719BD8C3D84313672700D8C32147DC42D9
:1003A000B18BE39EE7FE11B3EFF29FCF3717024008
:1003B0005C43370400209146B18B1304C40363856A
:1003C000D700A1466380D704B7376E0193870760D3
:1003D0001CC0B7160240DC420840918313F7F700B7
:1003E000B70700209387C702BA978C23DC4293F5A6
:1003F000F50F93F707083357B50099E3E1392A87DA
:1004000018C065B15C43B777DC02938707C0C9B7F2
:1004100001A0970100209381E142138101FC1305A3
:10042000000A970500209385E5BD170600201306F6
:1004300066BD63FAC5008322050023A0550011059F
:100440009105E3EAC5FE1305006797050020938533
:1004500065BB170600201306E6BE63FAC5008322BB
:10046000050023A0550011059105E3EAC5FE170517
:100470000020130525BD938581806377B500232077
:1004800005001105E36DB5FEB722000093820288D6
:10049000739002308D4273904280970200009382E5
:1004A00062B693E2320073905230EFF0FFE19702B0
:1004B0000000938262E07390123473002030944500
:1004C00093F7060193F2F60081C7DC41B3E2F20034
:1004D00083D3050093F7F30FA5C303230500611130
:1004E00022C226C08147130480029304800405477A
:1004F0003316F70033F7C3006312E6029395270023
:100500003D473317B7001347F7FF33736700B395C1
:10051000B20033E36500639D860050C9850721471B
:10052000E397E7FC12442320650082442101828086
:10053000E39696FE10C9DDB7828008456D8D333590
:10054000A0008280B707002023A0A704828037176D
:1005500002401C430E0593F777F05D8D08C382803F
:1005600099C5371702401C4F5D8D08CF8280B717A1
:100570000240984F1345F5FF798D88CF8280EFF2C6
:100580003FB2B707002003A5C703B7157A009385CC
:10059000052089361375F50FB70700202383A704BC
:1005A00093175500898F8A073E950E05B7070020DF
:1005B0002392A704DDBCEFF2BFAE37F400E05C404D
:1005C000AA85F99B5CC0B707002003C56704DD342A
:1005D00008C8232404001C4093E717001CC0B7F789
:1005E00000E0D843058B75DF9843799B98C375BCB1
:1005F000EFF21FAB37F400E05C40AA85F99B5CC0CA
:10060000B707002003D54704753408C82324040025
:100610001C4093E717001CC0B7F700E0D843058BD8
:1006200075DF9843799B98C349B400000400080023
:100630001000400080001000200040000200040074
:1006400001000000EF10DF202FD0DF203DC2DF20AF
:10065000BF40DF203FC0DF20EB14DF20FD02DF20A2
:100660007D82DF201FE0DF209F60DF20DD22DF2092
:100670000010014000100140001001400010014036
:10068000001001400014014000140140001401401A
:10069000000801400008014000100140010203046D
:1006A000050607080102030405060708006CDC02C2
:00000001FF
