:100000006F002038000000004A0100004C01000091
:1000100000000000000000000000000000000000E0
:1000200000000000000000000000000000000000D0
:1000300080030000000000008003000000000000BA
:1000400080030000800300008003000080030000A4
:100050008003000080030000800300008003000094
:100060008003000080030000800300008003000084
:100070008003000080030000800300008003000074
:100080008003000080030000800300008003000064
:1000900080030000800300008003000000000000D7
:1000A000511126C022C206C4828282441244A24058
:1000B000310182802A86014593F6150091C232955E
:1000C00085810606F5F9828000000000634E050276
:1000D00063C305042E86AA857D5515C285466378BF
:1000E000B6006356C00006068606E36CB6FE014500
:1000F00063E4C500918D558D85820582F5FA828075
:100100008682C93F2E8582823305A04063D70500D1
:10011000B305B040C1B7B305B0408682653F330533
:10012000A0408282868263C70500634905005D376F
:100130002E858282B305B040E35B05FE3305A04007
:10014000513F3305B0408282000001A0B707EFBEE7
:1001500037E700E0938707083CC701A0EFF25FF4A0
:100160007111E945853F2A8701443AC08947B71490
:1001700001409CC829455D268947DCC82945792E60
:1001800002470504E31387FE110105B7EFF25FF1A3
:10019000511185454145052E89477C80C1473EC4A4
:1001A0008A858D47371501403EC223110100412445
:1001B000B71701400947D8CB3101C5BDEFF25FEE5B
:1001C00071110545DD24892A312EC93709651305CA
:1001D000853269370947B7170140D8CB8567138542
:1001E00047192D2E37C7F7009307F7037D443EC00C
:1001F00013050023A53782471305A06933D787006D
:10020000058B19E313050023B71701408944C4CBBC
:1002100031267D147D57E31DE4FC130500233D3F8B
:10022000B71701402965C4CB130505C4C52C8567E4
:10023000138587BB0D2659BFEFF29FE637140240A6
:100240001C403707FFF8414593E717001CC05C408E
:10025000F98F5CC01C403707F7FE7D17F98F1CC073
:100260001C403707FCFF7D17F98F1CC05C404177AD
:100270007D17F98F5CC0B7079F001CC4252C1C4C50
:1002800093E707021CCCB717014003A707409386EA
:1002900007401377F7F023A0E74003A70740136751
:1002A000070823A0E74089479CCAB7F7FF1F03C58B
:1002B000477D9307F00F6304F5007D89E52AB72792
:1002C00002409843C176FD16719B98C3984313670B
:1002D000170098C3B7170240D843D8C3D843758FC7
:1002E000D8C3D843B7060001D8C39843558F98C3E5
:1002F000984393166700E3DD06FED843B716024025
:10030000719BD8C3D84313672700D8C32147DC4269
:10031000B18BE39EE7FE51BBEFF29FD83717024047
:100320005C43370400209146B18B130404016385BC
:10033000D700A1466380D704B7376E019387076063
:100340001CC0B7160240DC420840918313F7F70047
:10035000B707002093870700BA978C23DC4293F5F8
:10036000F50F93F707083357B50099E3A5332A87AC
:1003700018C025BB5C43B777DC02938707C0C9B7B9
:1003800001A09701002093816149138181FE13052B
:10039000000A970500209385E5C61706002013067E
:1003A00066C663FAC5008322050023A05500110527
:1003B0009105E3EAC5FE13050059970500209385D2
:1003C00065C417060020130666C563FAC5008322BC
:1003D000050023A0550011059105E3EAC5FE1705A8
:1003E00000201305A5C3938581806377B500232082
:1003F00005001105E36DB5FEB72200009382028867
:10040000739002308D427390428097020000938275
:1004100062BF93E2320073905230EFF0FFE1970237
:1004200000009382E2D97390123473002030944517
:1004300093F7060193F2F60081C7DC41B3E2F200C4
:1004400083D3050093F7F30FA5C3032305006111C0
:1004500022C226C08147130480029304800405470A
:100460003316F70033F7C3006312E60293952700B3
:100470003D473317B7001347F7FF33736700B39552
:10048000B20033E36500639D860050C985072147AC
:10049000E397E7FC12442320650082442101828017
:1004A000E39696FE10C9DDB78280B707002023AC23
:1004B000A7008280371702401C430E0593F777F0A0
:1004C0005D8D08C3828099C5371702401C4F5D8D32
:1004D00008CF8280B7170240984F1345F5FF798DFA
:1004E00088CF8280EFF2DFBBB707002003A50701AA
:1004F000B7157A0093850520F13E1375F50FB70700
:100500000020238FA70093175500898F8A073E95F7
:100510000E05B7070020239EA70041BEEFF25FB88B
:1005200037F400E05C40AA85F99B5CC0B707002067
:1005300003C5E701413608C8232404001C4093E7A3
:1005400017001CC0B7F700E0D843058B75DF984350
:10055000799B98C399BEEFF2BFB437F400E05C40DA
:10056000AA85F99B5CC0B707002003D5C70199365F
:1005700008C8232404001C4093E717001CC0B7F7E9
:1005800000E0D843058B75DF9843799B98C331BE53
:100590000102030405060708010203040506070813
:0805A000006CDC020000000009
:00000001FF
